:020000040000FA
:0400000036EF08F0DF
:10080000003738392F3435362A3132332D0D303D0B
:100810002B005445434C41444F00202020202020F1
:10082000000047EC06F03A6E60EF05F03A50D8B49D
:100830001CEF04F01EEF04F081EF05F0D00E176EF0
:10084000FF0E186E3A50196E1A6A17501926185072
:100850001A221A500AE10A0E195CD8A032EF04F0ED
:1008600035EF04F0010E36EF04F0000E1B6E1C6A2B
:100870001B501C10D8B43FEF04F041EF04F081EF9F
:1008800005F089803AC03BF0010E396E080E046E07
:10089000020E12EC07F03A5001EC08F0030E186E4D
:1008A000080E176E770EE82EFED7172EFCD7182EDF
:1008B000FAD700F081EF05F03A50D8B462EF04F0B7
:1008C00064EF04F081EF05F0D00E176EFF0E186E86
:1008D0003A50196E1A6A1750192618501A221A50CF
:1008E0000AE10A0E195CD8A078EF04F07BEF04F05F
:1008F000010E7CEF04F0000E1D6E1E6A1D501E10CE
:10090000D8B485EF04F087EF04F081EF05F03AC02A
:100910003CF0020E396E090E046E020E12EC07F066
:100920003A5001EC08F04EEF04F03A50D8B49BEF87
:1009300004F09DEF04F081EF05F0D00E176EFF0E6E
:10094000186E3A50196E1A6A1750192618501A2242
:100950001A500AE10A0E195CD8A0B1EF04F0B4EF06
:1009600004F0010EB5EF04F0000E1F6E206A1F5058
:100970002010D8B4BEEF04F0C0EF04F081EF05F012
:100980003AC03DF0030E396E0A0E046E020E12ECF0
:1009900007F03A5001EC08F04EEF04F03A50D8B4AA
:1009A000D4EF04F0D6EF04F081EF05F0D00E176E0F
:1009B000FF0E186E3A50196E1A6A17501926185001
:1009C0001A221A500AE10A0E195CD8A0EAEF04F0C4
:1009D000EDEF04F0010EEEEF04F0000E216E226A3E
:1009E00021502210D8B4F7EF04F0F9EF04F081EFB2
:1009F00005F03AC03EF0040E396E0B0E046E020E86
:100A000012EC07F03A5001EC08F04EEF04F03A50C7
:100A1000D8B40DEF05F00FEF05F033EF05F03D0E04
:100A20003A18D8B416EF05F018EF05F033EF05F0DB
:100A30008990000E396E080E046E020E12EC07F05B
:100A40001A0E056E080E066E73EC07F0040E186E93
:100A50000C0E176E340EE82EFED7172EFCD7182E6C
:100A6000FAD781EF05F03A50D8B439EF05F03BEFF3
:100A700005F081EF05F03D0E3A18D8A442EF05F0DD
:100A800044EF05F081EF05F08990000E3F6E3B0EBC
:100A9000086E000E096E82EC05F008C045F009C032
:100AA00046F0000E396E080E046E020E12EC07F0CE
:100AB0001A0E056E080E066E73EC07F026EF05F0B1
:100AC0003950176E186A1850000AD8B46AEF05F04A
:100AD00081EF05F01750000AD8B416EF04F0010AB0
:100AE000D8B45CEF04F0030AD8B495EF04F0010A1F
:100AF000D8B4CEEF04F0070AD8B407EF05F081EFC1
:100B000005F01200000E166E000E156E000E0F6E30
:100B1000000E0E6E8EEF05F0084A092A010E146EC3
:100B200008C0D9FF09C0DAFF200EDE18D8B49BEF49
:100B300005F09DEF05F0B9EF05F0F70E0A6EFF0E18
:100B40000B6E08C0D9FF09C0DAFFDF500C6E0D6ACA
:100B50000A500C260B500D220D5009E1050E0C5CBD
:100B6000D8A0B5EF05F0B7EF05F0B9EF05F0000E2E
:100B7000146E14C010F0116A10501110D8A4C3EFF5
:100B800005F0C5EF05F08CEF05F0CFEF05F0000E96
:100B90000F6E010E0E6E084A092A04EF06F008C017
:100BA000D9FF09C0DAFFDF500A6E0B6A0B50000A4A
:100BB000D8B4DDEF05F004EF06F00A502B0AD8B4E4
:100BC000CBEF05F0060AD8B4C7EF05F004EF06F046
:100BD00015C001F016C002F0000E046E0A0E036E7E
:100BE0004DEC08F008C0D9FF09C0DAFFDF500A6EEB
:100BF0000A50015E000E025A300E0124156E000EDE
:100C00000220166ECBEF05F0D00E0A6EFF0E0B6EB3
:100C100008C0D9FF09C0DAFFDF500C6E0D6A0A5018
:100C20000C260B500D220D500AE10A0E0C5CD8A0C8
:100C30001CEF06F01FEF06F0010E20EF06F0000E8D
:100C4000126E136A12501310D8A429EF06F02BEF7E
:100C500006F0E8EF05F00E500F10D8A432EF06F0C2
:100C600034EF06F042EF06F015C00AF016C00BF0A4
:100C70000A1E0B1E0A4A0B2A0AC008F00BC009F014
:100C800046EF06F015C008F016C009F01200010E7C
:100C9000F66E080EF76E20EE01F0100E0900F5CF8B
:100CA000DEFFE806FBE2000E136E000E126E000E71
:100CB000156E010E146E1438F00B8C6E83A063EF6A
:100CC00006F065EF06F067EF06F098EF06F0124ABF
:100CD000132A83A26EEF06F070EF06F072EF06F0B3
:100CE00098EF06F0124A132A83A479EF06F07BEFFF
:100CF00006F07DEF06F098EF06F0124A132A83A65D
:100D000084EF06F086EF06F088EF06F098EF06F025
:100D1000124A132AD89014361536155009E1100ED0
:100D2000145CD8A096EF06F098EF06F05BEF06F0A3
:100D3000000E836E010E1224D96E000E1320DA6E9F
:100D4000DF501200000E45EC07F01A0E046EF80E8C
:100D5000E82EFED7042EFCD700D0030E60EC08F07E
:100D6000070E046E7D0EE82EFED7042EFCD700F091
:100D7000030E60EC08F00F0E046E480EE82EFED74E
:100D8000042EFCD7030E60EC08F0020E60EC08F0B5
:100D9000020E60EC08F0080E60EC08F0000E60EC4B
:100DA00008F00C0E60EC08F0000E60EC08F0060E87
:100DB00060EC08F0120080EC08F0000E0F015B6F91
:100DC000000E5C6F000E5D6F000E5E6F000E5F6FB9
:100DD00085EC08F0000E936EA2EC06F079EC08F0BA
:100DE000060E046E010E12EC07F0120E056E080ED0
:100DF000066E73EC07F0949092908B8089908BA094
:100E000004EF07F007EF07F08B8008EF07F08B90F7
:100E100045C023F046C024F01DEC08F0FFEF06F0BB
:100E200000EF00F0056E0504D8A419EF07F01BEFE2
:100E300007F02CEF07F004507F0F086E08380F0BF7
:100E4000066E08500F0B076E065060EC08F0075056
:100E500060EC08F044EF07F0020E0518D8A433EF59
:100E600007F035EF07F044EF07F00450BF0F086EAE
:100E700008380F0B066E08500F0B076E065060EC1B
:100E800008F0075060EC08F01200016E01A04BEF73
:100E900007F04DEF07F050EF07F0818A51EF07F0B0
:100EA000819A01A256EF07F058EF07F05BEF07F0C9
:100EB00081885CEF07F0819801A461EF07F063EF90
:100EC00007F066EF07F0818667EF07F0819601A6CD
:100ED0006CEF07F06EEF07F071EF07F0818472EFAF
:100EE00007F081941200000E0A6E000E096E89EF61
:100EF00007F009500524076E0A500620086E07C047
:100F0000F6FF08C0F7FF0800F55001EC08F0094AA9
:100F10000A2A09500524076E0A500620086E07C0E9
:100F2000F6FF08C0F7FF0800F5500009D8A49BEFB2
:100F300007F09DEF07F079EF07F01200010E076E42
:100F4000200E01180210D8B4A8EF07F0AAEF07F09E
:100F5000C3EF07F0F70E036EFF0E046E01C005F03D
:100F600002C006F00350052604500622065009E18F
:100F7000050E055CD8A0BFEF07F0C1EF07F0C3EF87
:100F800007F0000E076E07C001F0026A1200000EA3
:100F90008D6E000E8C6E000E896E000E8A6E000E35
:100FA0008B6E070E966E92689368C70E946E956866
:100FB000C40E0F015D6F3F0E5C6F5E69070E5F6FC1
:100FC0002F0E5B6F8568F19E1200D00E036EFF0E30
:100FD000046E01C005F002C006F00350052604505F
:100FE000062206500AE10A0E055CD8A0FAEF07F0C7
:100FF000FDEF07F0010EFEEF07F0000E016E026A32
:101000001200046E04500F0B026E0450F00B036EBE
:10101000818E03380F0B45EC07F0818C0D0EE82E06
:10102000FED700F0819C025045EC07F0818C0D0E3C
:10103000E82EFED700F0819C120028EF08F0E90EA0
:10104000E82EFED700F011EC04F02306D8A0240609
:1010500024BE35EF08F0245006E12304D8B033EF66
:1010600008F035EF08F01FEF08F01200100EF66ED2
:10107000110EF76E000EF86E0900F5CF45F009006D
:10108000F5CF46F000EE25F0200EEE6AE806FDE111
:10109000000EF86E0001DBEF06F001500302F3CF03
:1010A00005F0F4CF06F001500402F350062602507A
:1010B0000302F350062605C001F006C002F012003C
:1010C000036E819E035045EC07F0818C060E026E84
:1010D000300EE82EFED7022EFCD700D0819C1200E5
:1010E000100ED36E000ED26E000E9B6E000EB56E0B
:1010F0001200000E60EC08F0010E60EC08F0120027
:10110000C7EC07F070EC08F012000F0E956E12009D
:02111000640079
:020000040020DA
:08000000FFFFFFFFFFFFFFFF00
:020000040030CA
:0E00000020215E3CFFD381FF0FC00FE00F40B8
:00000001FF
